{
    "_format": "hh-sol-artifact-1",
    "contractName": "BridgeBsc",
    "sourceName": "contracts/BridgeBSC.sol",
    "abi": [
        {
            "inputs": [
                {
                    "internalType": "address",
                    "name": "token",
                    "type": "address"
                }
            ],
            "stateMutability": "nonpayable",
            "type": "constructor"
        },
        {
            "anonymous": false,
            "inputs": [
                {
                    "indexed": false,
                    "internalType": "address",
                    "name": "from",
                    "type": "address"
                },
                {
                    "indexed": false,
                    "internalType": "address",
                    "name": "to",
                    "type": "address"
                },
                {
                    "indexed": false,
                    "internalType": "uint256",
                    "name": "amount",
                    "type": "uint256"
                },
                {
                    "indexed": false,
                    "internalType": "uint256",
                    "name": "date",
                    "type": "uint256"
                },
                {
                    "indexed": false,
                    "internalType": "uint256",
                    "name": "nonce",
                    "type": "uint256"
                },
                {
                    "indexed": false,
                    "internalType": "bytes",
                    "name": "signature",
                    "type": "bytes"
                },
                {
                    "indexed": true,
                    "internalType": "enum BridgeMain.Step",
                    "name": "step",
                    "type": "uint8"
                }
            ],
            "name": "Transfer",
            "type": "event"
        },
        {
            "inputs": [],
            "name": "admin",
            "outputs": [
                {
                    "internalType": "address",
                    "name": "",
                    "type": "address"
                }
            ],
            "stateMutability": "view",
            "type": "function"
        },
        {
            "inputs": [
                {
                    "internalType": "address",
                    "name": "to",
                    "type": "address"
                },
                {
                    "internalType": "uint256",
                    "name": "amount",
                    "type": "uint256"
                },
                {
                    "internalType": "uint256",
                    "name": "nonce",
                    "type": "uint256"
                },
                {
                    "internalType": "bytes",
                    "name": "signature",
                    "type": "bytes"
                }
            ],
            "name": "burn",
            "outputs": [],
            "stateMutability": "nonpayable",
            "type": "function"
        },
        {
            "inputs": [
                {
                    "internalType": "address",
                    "name": "from",
                    "type": "address"
                },
                {
                    "internalType": "address",
                    "name": "to",
                    "type": "address"
                },
                {
                    "internalType": "uint256",
                    "name": "amount",
                    "type": "uint256"
                },
                {
                    "internalType": "uint256",
                    "name": "nonce",
                    "type": "uint256"
                },
                {
                    "internalType": "bytes",
                    "name": "signature",
                    "type": "bytes"
                }
            ],
            "name": "mint",
            "outputs": [],
            "stateMutability": "nonpayable",
            "type": "function"
        },
        {
            "inputs": [
                {
                    "internalType": "address",
                    "name": "",
                    "type": "address"
                },
                {
                    "internalType": "uint256",
                    "name": "",
                    "type": "uint256"
                }
            ],
            "name": "processedNonces",
            "outputs": [
                {
                    "internalType": "bool",
                    "name": "",
                    "type": "bool"
                }
            ],
            "stateMutability": "view",
            "type": "function"
        },
        {
            "inputs": [],
            "name": "token",
            "outputs": [
                {
                    "internalType": "contract IToken",
                    "name": "",
                    "type": "address"
                }
            ],
            "stateMutability": "view",
            "type": "function"
        }
    ],
    "bytecode": "0x608060405234801561001057600080fd5b50604051610faf380380610faf833981810160405281019061003291906100d0565b80336000806101000a81548173ffffffffffffffffffffffffffffffffffffffff021916908373ffffffffffffffffffffffffffffffffffffffff16021790555080600160006101000a81548173ffffffffffffffffffffffffffffffffffffffff021916908373ffffffffffffffffffffffffffffffffffffffff1602179055505050610142565b6000815190506100ca8161012b565b92915050565b6000602082840312156100e257600080fd5b60006100f0848285016100bb565b91505092915050565b60006101048261010b565b9050919050565b600073ffffffffffffffffffffffffffffffffffffffff82169050919050565b610134816100f9565b811461013f57600080fd5b50565b610e5e806101516000396000f3fe608060405234801561001057600080fd5b50600436106100575760003560e01c8063525557021461005c5780637cc70240146100785780638a94b05f146100a8578063f851a440146100c4578063fc0c546a146100e2575b600080fd5b6100766004803603810190610071919061080a565b610100565b005b610092600480360381019061008d919061089c565b610415565b60405161009f9190610baf565b60405180910390f35b6100c260048036038101906100bd91906108d8565b610444565b005b6100cc610664565b6040516100d99190610b01565b60405180910390f35b6100ea610688565b6040516100f79190610c0f565b60405180910390f35b60006101378787878760405160200161011c9493929190610a8d565b604051602081830303815290604052805190602001206106ae565b90508673ffffffffffffffffffffffffffffffffffffffff1661019e8285858080601f016020809104026020016040519081016040528093929190818152602001838380828437600081840152601f19601f820116905080830192505050505050506106de565b73ffffffffffffffffffffffffffffffffffffffff16146101f4576040517f08c379a00000000000000000000000000000000000000000000000000000000081526004016101eb90610c4a565b60405180910390fd5b60001515600260008973ffffffffffffffffffffffffffffffffffffffff1673ffffffffffffffffffffffffffffffffffffffff168152602001908152602001600020600086815260200190815260200160002060009054906101000a900460ff16151514610298576040517f08c379a000000000000000000000000000000000000000000000000000000000815260040161028f90610c2a565b60405180910390fd5b6001600260008973ffffffffffffffffffffffffffffffffffffffff1673ffffffffffffffffffffffffffffffffffffffff168152602001908152602001600020600086815260200190815260200160002060006101000a81548160ff021916908315150217905550600160009054906101000a900473ffffffffffffffffffffffffffffffffffffffff1673ffffffffffffffffffffffffffffffffffffffff166340c10f1987876040518363ffffffff1660e01b815260040161035e929190610b86565b600060405180830381600087803b15801561037857600080fd5b505af115801561038c573d6000803e3d6000fd5b505050506001808111156103c9577f4e487b7100000000000000000000000000000000000000000000000000000000600052602160045260246000fd5b7fce5a9b86edd3b998c3948a7934c7ecf7dba73c4c5bcf56cf576bca4aa2beeb30888888428989896040516104049796959493929190610b1c565b60405180910390a250505050505050565b60026020528160005260406000206020528060005260406000206000915091509054906101000a900460ff1681565b60001515600260003373ffffffffffffffffffffffffffffffffffffffff1673ffffffffffffffffffffffffffffffffffffffff168152602001908152602001600020600085815260200190815260200160002060009054906101000a900460ff161515146104e8576040517f08c379a00000000000000000000000000000000000000000000000000000000081526004016104df90610c2a565b60405180910390fd5b6001600260003373ffffffffffffffffffffffffffffffffffffffff1673ffffffffffffffffffffffffffffffffffffffff168152602001908152602001600020600085815260200190815260200160002060006101000a81548160ff021916908315150217905550600160009054906101000a900473ffffffffffffffffffffffffffffffffffffffff1673ffffffffffffffffffffffffffffffffffffffff16639dc29fac33866040518363ffffffff1660e01b81526004016105ae929190610b86565b600060405180830381600087803b1580156105c857600080fd5b505af11580156105dc573d6000803e3d6000fd5b505050506000600181111561061a577f4e487b7100000000000000000000000000000000000000000000000000000000600052602160045260246000fd5b7fce5a9b86edd3b998c3948a7934c7ecf7dba73c4c5bcf56cf576bca4aa2beeb30338787428888886040516106559796959493929190610b1c565b60405180910390a25050505050565b60008054906101000a900473ffffffffffffffffffffffffffffffffffffffff1681565b600160009054906101000a900473ffffffffffffffffffffffffffffffffffffffff1681565b6000816040516020016106c19190610adb565b604051602081830303815290604052805190602001209050919050565b6000806000806106ed85610753565b8093508194508295505050506001868484846040516000815260200160405260405161071c9493929190610bca565b6020604051602081039080840390855afa15801561073e573d6000803e3d6000fd5b50505060206040510351935050505092915050565b6000806000604184511461076657600080fd5b60008060006020870151925060408701519150606087015160001a90508083839550955095505050509193909250565b6000813590506107a581610dfa565b92915050565b60008083601f8401126107bd57600080fd5b8235905067ffffffffffffffff8111156107d657600080fd5b6020830191508360018202830111156107ee57600080fd5b9250929050565b60008135905061080481610e11565b92915050565b60008060008060008060a0878903121561082357600080fd5b600061083189828a01610796565b965050602061084289828a01610796565b955050604061085389828a016107f5565b945050606061086489828a016107f5565b935050608087013567ffffffffffffffff81111561088157600080fd5b61088d89828a016107ab565b92509250509295509295509295565b600080604083850312156108af57600080fd5b60006108bd85828601610796565b92505060206108ce858286016107f5565b9150509250929050565b6000806000806000608086880312156108f057600080fd5b60006108fe88828901610796565b955050602061090f888289016107f5565b9450506040610920888289016107f5565b935050606086013567ffffffffffffffff81111561093d57600080fd5b610949888289016107ab565b92509250509295509295909350565b61096181610c97565b82525050565b61097861097382610c97565b610d29565b82525050565b61098781610ca9565b82525050565b61099681610cb5565b82525050565b6109ad6109a882610cb5565b610d3b565b82525050565b60006109bf8385610c6a565b93506109cc838584610d1a565b6109d583610d61565b840190509392505050565b6109e981610cf6565b82525050565b60006109fc601c83610c8c565b9150610a0782610d7f565b601c82019050919050565b6000610a1f601a83610c7b565b9150610a2a82610da8565b602082019050919050565b6000610a42600f83610c7b565b9150610a4d82610dd1565b602082019050919050565b610a6181610cdf565b82525050565b610a78610a7382610cdf565b610d57565b82525050565b610a8781610ce9565b82525050565b6000610a998287610967565b601482019150610aa98286610967565b601482019150610ab98285610a67565b602082019150610ac98284610a67565b60208201915081905095945050505050565b6000610ae6826109ef565b9150610af2828461099c565b60208201915081905092915050565b6000602082019050610b166000830184610958565b92915050565b600060c082019050610b31600083018a610958565b610b3e6020830189610958565b610b4b6040830188610a58565b610b586060830187610a58565b610b656080830186610a58565b81810360a0830152610b788184866109b3565b905098975050505050505050565b6000604082019050610b9b6000830185610958565b610ba86020830184610a58565b9392505050565b6000602082019050610bc4600083018461097e565b92915050565b6000608082019050610bdf600083018761098d565b610bec6020830186610a7e565b610bf9604083018561098d565b610c06606083018461098d565b95945050505050565b6000602082019050610c2460008301846109e0565b92915050565b60006020820190508181036000830152610c4381610a12565b9050919050565b60006020820190508181036000830152610c6381610a35565b9050919050565b600082825260208201905092915050565b600082825260208201905092915050565b600081905092915050565b6000610ca282610cbf565b9050919050565b60008115159050919050565b6000819050919050565b600073ffffffffffffffffffffffffffffffffffffffff82169050919050565b6000819050919050565b600060ff82169050919050565b6000610d0182610d08565b9050919050565b6000610d1382610cbf565b9050919050565b82818337600083830152505050565b6000610d3482610d45565b9050919050565b6000819050919050565b6000610d5082610d72565b9050919050565b6000819050919050565b6000601f19601f8301169050919050565b60008160601b9050919050565b7f19457468657265756d205369676e6564204d6573736167653a0a333200000000600082015250565b7f7472616e7366657220616c72656164792070726f636573736564000000000000600082015250565b7f77726f6e67207369676e61747572650000000000000000000000000000000000600082015250565b610e0381610c97565b8114610e0e57600080fd5b50565b610e1a81610cdf565b8114610e2557600080fd5b5056fea26469706673582212206796b07aa9c5a1732618087d7195d8faadd2129b65bb7115263611e2bef5aacf64736f6c63430008040033",
    "linkReferences": {},
    "deployedLinkReferences": {}
}