{
    "_format": "hh-sol-artifact-1",
    "contractName": "TokenBsc",
    "sourceName": "contracts/TokenBSC.sol",
    "abi": [
        {
            "inputs": [],
            "stateMutability": "nonpayable",
            "type": "constructor"
        },
        {
            "anonymous": false,
            "inputs": [
                {
                    "indexed": true,
                    "internalType": "address",
                    "name": "owner",
                    "type": "address"
                },
                {
                    "indexed": true,
                    "internalType": "address",
                    "name": "spender",
                    "type": "address"
                },
                {
                    "indexed": false,
                    "internalType": "uint256",
                    "name": "value",
                    "type": "uint256"
                }
            ],
            "name": "Approval",
            "type": "event"
        },
        {
            "anonymous": false,
            "inputs": [
                {
                    "indexed": true,
                    "internalType": "address",
                    "name": "from",
                    "type": "address"
                },
                {
                    "indexed": true,
                    "internalType": "address",
                    "name": "to",
                    "type": "address"
                },
                {
                    "indexed": false,
                    "internalType": "uint256",
                    "name": "value",
                    "type": "uint256"
                }
            ],
            "name": "Transfer",
            "type": "event"
        },
        {
            "inputs": [],
            "name": "admin",
            "outputs": [
                {
                    "internalType": "address",
                    "name": "",
                    "type": "address"
                }
            ],
            "stateMutability": "view",
            "type": "function"
        },
        {
            "inputs": [
                {
                    "internalType": "address",
                    "name": "owner",
                    "type": "address"
                },
                {
                    "internalType": "address",
                    "name": "spender",
                    "type": "address"
                }
            ],
            "name": "allowance",
            "outputs": [
                {
                    "internalType": "uint256",
                    "name": "",
                    "type": "uint256"
                }
            ],
            "stateMutability": "view",
            "type": "function"
        },
        {
            "inputs": [
                {
                    "internalType": "address",
                    "name": "spender",
                    "type": "address"
                },
                {
                    "internalType": "uint256",
                    "name": "amount",
                    "type": "uint256"
                }
            ],
            "name": "approve",
            "outputs": [
                {
                    "internalType": "bool",
                    "name": "",
                    "type": "bool"
                }
            ],
            "stateMutability": "nonpayable",
            "type": "function"
        },
        {
            "inputs": [
                {
                    "internalType": "address",
                    "name": "account",
                    "type": "address"
                }
            ],
            "name": "balanceOf",
            "outputs": [
                {
                    "internalType": "uint256",
                    "name": "",
                    "type": "uint256"
                }
            ],
            "stateMutability": "view",
            "type": "function"
        },
        {
            "inputs": [
                {
                    "internalType": "address",
                    "name": "owner",
                    "type": "address"
                },
                {
                    "internalType": "uint256",
                    "name": "amount",
                    "type": "uint256"
                }
            ],
            "name": "burn",
            "outputs": [],
            "stateMutability": "nonpayable",
            "type": "function"
        },
        {
            "inputs": [],
            "name": "decimals",
            "outputs": [
                {
                    "internalType": "uint8",
                    "name": "",
                    "type": "uint8"
                }
            ],
            "stateMutability": "view",
            "type": "function"
        },
        {
            "inputs": [
                {
                    "internalType": "address",
                    "name": "spender",
                    "type": "address"
                },
                {
                    "internalType": "uint256",
                    "name": "subtractedValue",
                    "type": "uint256"
                }
            ],
            "name": "decreaseAllowance",
            "outputs": [
                {
                    "internalType": "bool",
                    "name": "",
                    "type": "bool"
                }
            ],
            "stateMutability": "nonpayable",
            "type": "function"
        },
        {
            "inputs": [
                {
                    "internalType": "address",
                    "name": "spender",
                    "type": "address"
                },
                {
                    "internalType": "uint256",
                    "name": "addedValue",
                    "type": "uint256"
                }
            ],
            "name": "increaseAllowance",
            "outputs": [
                {
                    "internalType": "bool",
                    "name": "",
                    "type": "bool"
                }
            ],
            "stateMutability": "nonpayable",
            "type": "function"
        },
        {
            "inputs": [
                {
                    "internalType": "address",
                    "name": "to",
                    "type": "address"
                },
                {
                    "internalType": "uint256",
                    "name": "amount",
                    "type": "uint256"
                }
            ],
            "name": "mint",
            "outputs": [],
            "stateMutability": "nonpayable",
            "type": "function"
        },
        {
            "inputs": [],
            "name": "name",
            "outputs": [
                {
                    "internalType": "string",
                    "name": "",
                    "type": "string"
                }
            ],
            "stateMutability": "view",
            "type": "function"
        },
        {
            "inputs": [],
            "name": "symbol",
            "outputs": [
                {
                    "internalType": "string",
                    "name": "",
                    "type": "string"
                }
            ],
            "stateMutability": "view",
            "type": "function"
        },
        {
            "inputs": [],
            "name": "totalSupply",
            "outputs": [
                {
                    "internalType": "uint256",
                    "name": "",
                    "type": "uint256"
                }
            ],
            "stateMutability": "view",
            "type": "function"
        },
        {
            "inputs": [
                {
                    "internalType": "address",
                    "name": "to",
                    "type": "address"
                },
                {
                    "internalType": "uint256",
                    "name": "amount",
                    "type": "uint256"
                }
            ],
            "name": "transfer",
            "outputs": [
                {
                    "internalType": "bool",
                    "name": "",
                    "type": "bool"
                }
            ],
            "stateMutability": "nonpayable",
            "type": "function"
        },
        {
            "inputs": [
                {
                    "internalType": "address",
                    "name": "from",
                    "type": "address"
                },
                {
                    "internalType": "address",
                    "name": "to",
                    "type": "address"
                },
                {
                    "internalType": "uint256",
                    "name": "amount",
                    "type": "uint256"
                }
            ],
            "name": "transferFrom",
            "outputs": [
                {
                    "internalType": "bool",
                    "name": "",
                    "type": "bool"
                }
            ],
            "stateMutability": "nonpayable",
            "type": "function"
        },
        {
            "inputs": [
                {
                    "internalType": "address",
                    "name": "newAdmin",
                    "type": "address"
                }
            ],
            "name": "updateAdmin",
            "outputs": [],
            "stateMutability": "nonpayable",
            "type": "function"
        }
    ],
    "bytecode": "0x60806040523480156200001157600080fd5b506040518060400160405280600981526020017f42534320546f6b656e00000000000000000000000000000000000000000000008152506040518060400160405280600381526020017f42544b00000000000000000000000000000000000000000000000000000000008152508181816003908051906020019062000098929190620000fd565b508060049080519060200190620000b1929190620000fd565b50505033600560006101000a81548173ffffffffffffffffffffffffffffffffffffffff021916908373ffffffffffffffffffffffffffffffffffffffff160217905550505062000212565b8280546200010b90620001ad565b90600052602060002090601f0160209004810192826200012f57600085556200017b565b82601f106200014a57805160ff19168380011785556200017b565b828001600101855582156200017b579182015b828111156200017a5782518255916020019190600101906200015d565b5b5090506200018a91906200018e565b5090565b5b80821115620001a95760008160009055506001016200018f565b5090565b60006002820490506001821680620001c657607f821691505b60208210811415620001dd57620001dc620001e3565b5b50919050565b7f4e487b7100000000000000000000000000000000000000000000000000000000600052602260045260246000fd5b611bbe80620002226000396000f3fe608060405234801561001057600080fd5b50600436106100f55760003560e01c806370a0823111610097578063a9059cbb11610066578063a9059cbb1461029a578063dd62ed3e146102ca578063e2f273bd146102fa578063f851a44014610316576100f5565b806370a082311461020057806395d89b41146102305780639dc29fac1461024e578063a457c2d71461026a576100f5565b806323b872dd116100d357806323b872dd14610166578063313ce5671461019657806339509351146101b457806340c10f19146101e4576100f5565b806306fdde03146100fa578063095ea7b31461011857806318160ddd14610148575b600080fd5b610102610334565b60405161010f91906114e0565b60405180910390f35b610132600480360381019061012d9190611278565b6103c6565b60405161013f91906114c5565b60405180910390f35b6101506103e9565b60405161015d9190611662565b60405180910390f35b610180600480360381019061017b9190611229565b6103f3565b60405161018d91906114c5565b60405180910390f35b61019e610422565b6040516101ab919061167d565b60405180910390f35b6101ce60048036038101906101c99190611278565b61042b565b6040516101db91906114c5565b60405180910390f35b6101fe60048036038101906101f99190611278565b6104d5565b005b61021a600480360381019061021591906111c4565b610573565b6040516102279190611662565b60405180910390f35b6102386105bb565b60405161024591906114e0565b60405180910390f35b61026860048036038101906102639190611278565b61064d565b005b610284600480360381019061027f9190611278565b6106eb565b60405161029191906114c5565b60405180910390f35b6102b460048036038101906102af9190611278565b6107d5565b6040516102c191906114c5565b60405180910390f35b6102e460048036038101906102df91906111ed565b6107f8565b6040516102f19190611662565b60405180910390f35b610314600480360381019061030f91906111c4565b61087f565b005b61031e610953565b60405161032b91906114aa565b60405180910390f35b606060038054610343906117c6565b80601f016020809104026020016040519081016040528092919081815260200182805461036f906117c6565b80156103bc5780601f10610391576101008083540402835291602001916103bc565b820191906000526020600020905b81548152906001019060200180831161039f57829003601f168201915b5050505050905090565b6000806103d1610979565b90506103de818585610981565b600191505092915050565b6000600254905090565b6000806103fe610979565b905061040b858285610b4c565b610416858585610bd8565b60019150509392505050565b60006012905090565b600080610436610979565b90506104ca818585600160008673ffffffffffffffffffffffffffffffffffffffff1673ffffffffffffffffffffffffffffffffffffffff16815260200190815260200160002060008973ffffffffffffffffffffffffffffffffffffffff1673ffffffffffffffffffffffffffffffffffffffff168152602001908152602001600020546104c591906116b4565b610981565b600191505092915050565b600560009054906101000a900473ffffffffffffffffffffffffffffffffffffffff1673ffffffffffffffffffffffffffffffffffffffff163373ffffffffffffffffffffffffffffffffffffffff1614610565576040517f08c379a000000000000000000000000000000000000000000000000000000000815260040161055c906115a2565b60405180910390fd5b61056f8282610e59565b5050565b60008060008373ffffffffffffffffffffffffffffffffffffffff1673ffffffffffffffffffffffffffffffffffffffff168152602001908152602001600020549050919050565b6060600480546105ca906117c6565b80601f01602080910402602001604051908101604052809291908181526020018280546105f6906117c6565b80156106435780601f1061061857610100808354040283529160200191610643565b820191906000526020600020905b81548152906001019060200180831161062657829003601f168201915b5050505050905090565b600560009054906101000a900473ffffffffffffffffffffffffffffffffffffffff1673ffffffffffffffffffffffffffffffffffffffff163373ffffffffffffffffffffffffffffffffffffffff16146106dd576040517f08c379a00000000000000000000000000000000000000000000000000000000081526004016106d4906115a2565b60405180910390fd5b6106e78282610fb9565b5050565b6000806106f6610979565b90506000600160008373ffffffffffffffffffffffffffffffffffffffff1673ffffffffffffffffffffffffffffffffffffffff16815260200190815260200160002060008673ffffffffffffffffffffffffffffffffffffffff1673ffffffffffffffffffffffffffffffffffffffff168152602001908152602001600020549050838110156107bc576040517f08c379a00000000000000000000000000000000000000000000000000000000081526004016107b390611622565b60405180910390fd5b6107c98286868403610981565b60019250505092915050565b6000806107e0610979565b90506107ed818585610bd8565b600191505092915050565b6000600160008473ffffffffffffffffffffffffffffffffffffffff1673ffffffffffffffffffffffffffffffffffffffff16815260200190815260200160002060008373ffffffffffffffffffffffffffffffffffffffff1673ffffffffffffffffffffffffffffffffffffffff16815260200190815260200160002054905092915050565b600560009054906101000a900473ffffffffffffffffffffffffffffffffffffffff1673ffffffffffffffffffffffffffffffffffffffff163373ffffffffffffffffffffffffffffffffffffffff161461090f576040517f08c379a0000000000000000000000000000000000000000000000000000000008152600401610906906115a2565b60405180910390fd5b80600560006101000a81548173ffffffffffffffffffffffffffffffffffffffff021916908373ffffffffffffffffffffffffffffffffffffffff16021790555050565b600560009054906101000a900473ffffffffffffffffffffffffffffffffffffffff1681565b600033905090565b600073ffffffffffffffffffffffffffffffffffffffff168373ffffffffffffffffffffffffffffffffffffffff1614156109f1576040517f08c379a00000000000000000000000000000000000000000000000000000000081526004016109e890611602565b60405180910390fd5b600073ffffffffffffffffffffffffffffffffffffffff168273ffffffffffffffffffffffffffffffffffffffff161415610a61576040517f08c379a0000000000000000000000000000000000000000000000000000000008152600401610a5890611542565b60405180910390fd5b80600160008573ffffffffffffffffffffffffffffffffffffffff1673ffffffffffffffffffffffffffffffffffffffff16815260200190815260200160002060008473ffffffffffffffffffffffffffffffffffffffff1673ffffffffffffffffffffffffffffffffffffffff168152602001908152602001600020819055508173ffffffffffffffffffffffffffffffffffffffff168373ffffffffffffffffffffffffffffffffffffffff167f8c5be1e5ebec7d5bd14f71427d1e84f3dd0314c0f7b2291e5b200ac8c7c3b92583604051610b3f9190611662565b60405180910390a3505050565b6000610b5884846107f8565b90507fffffffffffffffffffffffffffffffffffffffffffffffffffffffffffffffff8114610bd25781811015610bc4576040517f08c379a0000000000000000000000000000000000000000000000000000000008152600401610bbb90611562565b60405180910390fd5b610bd18484848403610981565b5b50505050565b600073ffffffffffffffffffffffffffffffffffffffff168373ffffffffffffffffffffffffffffffffffffffff161415610c48576040517f08c379a0000000000000000000000000000000000000000000000000000000008152600401610c3f906115e2565b60405180910390fd5b600073ffffffffffffffffffffffffffffffffffffffff168273ffffffffffffffffffffffffffffffffffffffff161415610cb8576040517f08c379a0000000000000000000000000000000000000000000000000000000008152600401610caf90611502565b60405180910390fd5b610cc3838383611190565b60008060008573ffffffffffffffffffffffffffffffffffffffff1673ffffffffffffffffffffffffffffffffffffffff16815260200190815260200160002054905081811015610d49576040517f08c379a0000000000000000000000000000000000000000000000000000000008152600401610d4090611582565b60405180910390fd5b8181036000808673ffffffffffffffffffffffffffffffffffffffff1673ffffffffffffffffffffffffffffffffffffffff16815260200190815260200160002081905550816000808573ffffffffffffffffffffffffffffffffffffffff1673ffffffffffffffffffffffffffffffffffffffff1681526020019081526020016000206000828254610ddc91906116b4565b925050819055508273ffffffffffffffffffffffffffffffffffffffff168473ffffffffffffffffffffffffffffffffffffffff167fddf252ad1be2c89b69c2b068fc378daa952ba7f163c4a11628f55a4df523b3ef84604051610e409190611662565b60405180910390a3610e53848484611195565b50505050565b600073ffffffffffffffffffffffffffffffffffffffff168273ffffffffffffffffffffffffffffffffffffffff161415610ec9576040517f08c379a0000000000000000000000000000000000000000000000000000000008152600401610ec090611642565b60405180910390fd5b610ed560008383611190565b8060026000828254610ee791906116b4565b92505081905550806000808473ffffffffffffffffffffffffffffffffffffffff1673ffffffffffffffffffffffffffffffffffffffff1681526020019081526020016000206000828254610f3c91906116b4565b925050819055508173ffffffffffffffffffffffffffffffffffffffff16600073ffffffffffffffffffffffffffffffffffffffff167fddf252ad1be2c89b69c2b068fc378daa952ba7f163c4a11628f55a4df523b3ef83604051610fa19190611662565b60405180910390a3610fb560008383611195565b5050565b600073ffffffffffffffffffffffffffffffffffffffff168273ffffffffffffffffffffffffffffffffffffffff161415611029576040517f08c379a0000000000000000000000000000000000000000000000000000000008152600401611020906115c2565b60405180910390fd5b61103582600083611190565b60008060008473ffffffffffffffffffffffffffffffffffffffff1673ffffffffffffffffffffffffffffffffffffffff168152602001908152602001600020549050818110156110bb576040517f08c379a00000000000000000000000000000000000000000000000000000000081526004016110b290611522565b60405180910390fd5b8181036000808573ffffffffffffffffffffffffffffffffffffffff1673ffffffffffffffffffffffffffffffffffffffff168152602001908152602001600020819055508160026000828254611112919061170a565b92505081905550600073ffffffffffffffffffffffffffffffffffffffff168373ffffffffffffffffffffffffffffffffffffffff167fddf252ad1be2c89b69c2b068fc378daa952ba7f163c4a11628f55a4df523b3ef846040516111779190611662565b60405180910390a361118b83600084611195565b505050565b505050565b505050565b6000813590506111a981611b5a565b92915050565b6000813590506111be81611b71565b92915050565b6000602082840312156111d657600080fd5b60006111e48482850161119a565b91505092915050565b6000806040838503121561120057600080fd5b600061120e8582860161119a565b925050602061121f8582860161119a565b9150509250929050565b60008060006060848603121561123e57600080fd5b600061124c8682870161119a565b935050602061125d8682870161119a565b925050604061126e868287016111af565b9150509250925092565b6000806040838503121561128b57600080fd5b60006112998582860161119a565b92505060206112aa858286016111af565b9150509250929050565b6112bd8161173e565b82525050565b6112cc81611750565b82525050565b60006112dd82611698565b6112e781856116a3565b93506112f7818560208601611793565b61130081611856565b840191505092915050565b60006113186023836116a3565b915061132382611867565b604082019050919050565b600061133b6022836116a3565b9150611346826118b6565b604082019050919050565b600061135e6022836116a3565b915061136982611905565b604082019050919050565b6000611381601d836116a3565b915061138c82611954565b602082019050919050565b60006113a46026836116a3565b91506113af8261197d565b604082019050919050565b60006113c7600a836116a3565b91506113d2826119cc565b602082019050919050565b60006113ea6021836116a3565b91506113f5826119f5565b604082019050919050565b600061140d6025836116a3565b915061141882611a44565b604082019050919050565b60006114306024836116a3565b915061143b82611a93565b604082019050919050565b60006114536025836116a3565b915061145e82611ae2565b604082019050919050565b6000611476601f836116a3565b915061148182611b31565b602082019050919050565b6114958161177c565b82525050565b6114a481611786565b82525050565b60006020820190506114bf60008301846112b4565b92915050565b60006020820190506114da60008301846112c3565b92915050565b600060208201905081810360008301526114fa81846112d2565b905092915050565b6000602082019050818103600083015261151b8161130b565b9050919050565b6000602082019050818103600083015261153b8161132e565b9050919050565b6000602082019050818103600083015261155b81611351565b9050919050565b6000602082019050818103600083015261157b81611374565b9050919050565b6000602082019050818103600083015261159b81611397565b9050919050565b600060208201905081810360008301526115bb816113ba565b9050919050565b600060208201905081810360008301526115db816113dd565b9050919050565b600060208201905081810360008301526115fb81611400565b9050919050565b6000602082019050818103600083015261161b81611423565b9050919050565b6000602082019050818103600083015261163b81611446565b9050919050565b6000602082019050818103600083015261165b81611469565b9050919050565b6000602082019050611677600083018461148c565b92915050565b6000602082019050611692600083018461149b565b92915050565b600081519050919050565b600082825260208201905092915050565b60006116bf8261177c565b91506116ca8361177c565b9250827fffffffffffffffffffffffffffffffffffffffffffffffffffffffffffffffff038211156116ff576116fe6117f8565b5b828201905092915050565b60006117158261177c565b91506117208361177c565b925082821015611733576117326117f8565b5b828203905092915050565b60006117498261175c565b9050919050565b60008115159050919050565b600073ffffffffffffffffffffffffffffffffffffffff82169050919050565b6000819050919050565b600060ff82169050919050565b60005b838110156117b1578082015181840152602081019050611796565b838111156117c0576000848401525b50505050565b600060028204905060018216806117de57607f821691505b602082108114156117f2576117f1611827565b5b50919050565b7f4e487b7100000000000000000000000000000000000000000000000000000000600052601160045260246000fd5b7f4e487b7100000000000000000000000000000000000000000000000000000000600052602260045260246000fd5b6000601f19601f8301169050919050565b7f45524332303a207472616e7366657220746f20746865207a65726f206164647260008201527f6573730000000000000000000000000000000000000000000000000000000000602082015250565b7f45524332303a206275726e20616d6f756e7420657863656564732062616c616e60008201527f6365000000000000000000000000000000000000000000000000000000000000602082015250565b7f45524332303a20617070726f766520746f20746865207a65726f20616464726560008201527f7373000000000000000000000000000000000000000000000000000000000000602082015250565b7f45524332303a20696e73756666696369656e7420616c6c6f77616e6365000000600082015250565b7f45524332303a207472616e7366657220616d6f756e742065786365656473206260008201527f616c616e63650000000000000000000000000000000000000000000000000000602082015250565b7f6f6e6c792061646d696e00000000000000000000000000000000000000000000600082015250565b7f45524332303a206275726e2066726f6d20746865207a65726f2061646472657360008201527f7300000000000000000000000000000000000000000000000000000000000000602082015250565b7f45524332303a207472616e736665722066726f6d20746865207a65726f20616460008201527f6472657373000000000000000000000000000000000000000000000000000000602082015250565b7f45524332303a20617070726f76652066726f6d20746865207a65726f2061646460008201527f7265737300000000000000000000000000000000000000000000000000000000602082015250565b7f45524332303a2064656372656173656420616c6c6f77616e63652062656c6f7760008201527f207a65726f000000000000000000000000000000000000000000000000000000602082015250565b7f45524332303a206d696e7420746f20746865207a65726f206164647265737300600082015250565b611b638161173e565b8114611b6e57600080fd5b50565b611b7a8161177c565b8114611b8557600080fd5b5056fea26469706673582212206efdb01cb7201c6225a6a5d777f630d05e6911028a32dbfe325cf13c74bdc85c64736f6c63430008040033",
    "linkReferences": {},
    "deployedLinkReferences": {}
}